:020000040800F2
:1000000010040020C5010008FB0B0008850B000848
:10001000F90B0008D1020008950C00080000000050
:10002000000000000000000000000000FF0B0008BE
:10003000D302000800000000FD0B0008010C0008BE
:10004000DF010008DF010008DF010008DF01000810
:10005000DF010008DF010008DF010008DF01000800
:10006000DF010008DF010008DF010008DF010008F0
:10007000DF010008DF010008DF010008DF010008E0
:10008000DF010008DF010008DF010008DF010008D0
:10009000DF010008DF010008DF010008DF010008C0
:1000A000DF010008DF010008DF010008DF010008B0
:1000B000DF010008DF010008DF010008DF010008A0
:1000C000DF010008DF010008DF010008DF01000890
:1000D000DF010008DF010008DF010008DF01000880
:1000E000DF010008DF010008DF010008DF01000870
:1000F000DF010008DF010008DF010008DF01000860
:10010000DF010008DF010008DF010008DF0100084F
:10011000DF010008DF010008DF010008DF0100083F
:10012000DF010008DF010008DF010008DF0100082F
:10013000DF010008DF010008DF010008DF0100081F
:10014000DF010008DF010008DF010008DF0100080F
:10015000DF010008DF010008DF010008DF010008FF
:10016000DF010008DF010008DF010008DF010008EF
:10017000DF010008DF010008DF01000800000000C7
:10018000DF010008DF010008DF010008DF010008CF
:10019000DF010008DF010008DF010008DF010008BF
:1001A000DF010008DF010008DF010008DFF810D0E0
:1001B00000F07CF800480047D50C0008AFF3008041
:1001C000100400200648804706480047FEE7FEE787
:1001D000FEE7FEE7FEE7FEE7FEE7FEE7FEE7FEE7F7
:1001E000850C0008AD0100082DE9F05F05460020F0
:1001F00092469B4688460646814640241BE0284698
:1002000041464746224600F041F853465A46C01A36
:10021000914110D311461846224600F028F82D1AB5
:1002200067EB01084F4622460120002100F01FF82D
:1002300017EB00094E41201EA4F10104DFDC484603
:1002400031462A464346BDE8F09FD2B201E000F8AD
:10025000012B491EFBD270470022F6E710B513466A
:100260000A4604461946FFF7F0FF204610BD202A33
:1002700004DB203A00FA02F1002070479140C2F1FD
:10028000200320FA03F3194390407047202A04DB2F
:10029000203A21FA02F00021704721FA02F3D040FF
:1002A000C2F120029140084319467047064C074DA1
:1002B00006E0E06840F0010394E807009847103436
:1002C000AC42F6D3FFF776FF1C0D00083C0D00088A
:1002D000FEE7704770B5044600F02CF90546601C37
:1002E00002D004480078044400F024F9401BA042E6
:1002F000FAD370BD000000202DE9F84FDFF8F4A11B
:10030000002201240AF1040B03254FF00F090BF121
:10031000040E00BF0B6804FA02F63340B3426FD1FB
:100320000F7907F00307012F01D0022F16D187683C
:100330004FEA420805FA08FC27EA0C07D1F80CC07E
:100340000CFA08FC4CEA070CC0F808C04768B74331
:100350000E79C6F3001696403E4346600E79F6438A
:10036000B6070AD0C7684FEA420C05FA0CF6B74345
:100370008E6806FA0CF63E43C6600E7906F0030658
:10038000022E10D1D60800EB8608D8F82060570757
:100390004FEAD76C09FA0CF7BE430F6907FA0CF75E
:1003A0003743C8F8207006684FEA420C05FA0CF78C
:1003B000BE430F7907F0030707FA0CF737430760CE
:1003C0004E68F6001CD54C4E376847F480473760BE
:1003D000366822F0030706F480460096474E07EB86
:1003E000060CDCF8086897073F0F09FA07F826EAB9
:1003F0000806DFF80C81404503D14FF0000841E0CA
:1004000072E0DFF80081404502D14FF0010839E089
:10041000DFF8F480404502D14FF0020832E0DFF807
:10042000EC80404502D14FF003082BE0DFF8E0807C
:10043000404502D14FF0040824E0DFF8D880404561
:1004400002D14FF005081DE0DFF8CC80404502D115
:100450004FF0060816E0DFF8C480404502D14FF0A7
:1004600007080FE0DFF8B880404502D14FF00808D8
:1004700008E0DFF8B080404502D14FF0090801E004
:100480004FF00A0808FA07F848EA0608CCF8088886
:10049000DAF800605746D1F804C09E435FEACC3CCE
:1004A00000D51E433E60DBF800605F46D1F804C013
:1004B0009E435FEA8C3C00D51E433E60DEF8006040
:1004C0007746D1F804C09E435FEACC2C00D51E438A
:1004D0003E60084F0C373E68D1F804C09E435FEA87
:1004E0008C2C00D51E433E60521C102AFFF412AF24
:1004F000BDE8F88F003C0140443802400030014024
:10050000000002400004024000080240000C0240CB
:10051000001002400014024000180240001C02407B
:1005200000200240002402400AB1816170470904A2
:10053000FBE70000014880687047000000000020D1
:1005400002488168027811448160704700000020F1
:100550000B4810B5016841F400710160016841F475
:1005600080610160016841F480710160032000F046
:1005700061F8002000F006F800F024F8002010BD1B
:10058000003C024070B50D4D04464FF47A71287856
:10059000B1FBF0F00A490968B1FBF0F000F0DEFAB7
:1005A00048B9102C07D200222146501E00F022F834
:1005B00000206C6070BD012070BD000000000020B4
:1005C0000C0000200A4808B5016841F48041016030
:1005D000006800F4804000900548001F016841F069
:1005E00080510160006800F08050009008BD00005C
:1005F00044380240F0B40E4B1B680C46C3F3022390
:10060000C3F10705042D00D90425191D072901D2BE
:10061000002300E0DB1E012606FA05F1491E2140F9
:1006200099409E40761E16403143F0BC00F033BB2B
:100630000CED00E0064900F0070208684FF6FF03E2
:10064000184040EA0220034A104308607047000047
:100650000CED00E00000FA052DE9F0470E4605001C
:1006600065D0DFF81481D8F80000F7B200F00F0071
:10067000B04207D288F80070D8F8000000F00F00F0
:10068000B04254D128683D4C810712D5400703D5AC
:10069000206840F4E05020602878000703D52068E7
:1006A00040F4604020602068A96820F0F000084312
:1006B00020602878C0072DD03049686808390128A3
:1006C00012D0022813D0032811D009688907002905
:1006D0002DDA216821F0030101432160FFF72AFF91
:1006E000814641F2883A0EE009688903EFE709681C
:1006F0008901ECE7FFF71EFFA0EB0901514502D984
:100700000320BDE8F0872068696800F00C00B0EBBA
:10071000810FEFD1D8F80010404601F00F01B1422F
:1007200007D90770006800F00F00B04201D0012027
:10073000E7E72878400705D52068E96820F4E0500D
:10074000084320602878000706D52068296920F42E
:10075000604040EAC100206000F018F82168084AB3
:10076000C1F30311515CC84006490860064800689F
:10077000FFF708FF0020C4E7003C024008380240B1
:100780000C0D00080C00002004000020154810B5D6
:10079000006810F00C02144813D01449042A0FD03A
:1007A000082A0ED10F4C241F2268236802F03F0252
:1007B0005B0207D52068C0F38810A0FB010106E0AA
:1007C000084610BD2168C1F38811A1FB0001002378
:1007D000FFF70AFD2168C1F30141491C4900B0FB44
:1007E000F1F010BD083802400024F40040787D018B
:1007F0002DE9F84F04006ED02078DFF84C93C00745
:10080000A9F104054AD009F104000168C1F381018E
:10081000012908D00068C0F3810002280AD1D9F864
:100820000000400206D52868800337D5606800289C
:10083000E1D033E06068B0F5803F10D0B0F5A02F74
:10084000286810D020F480302860286820F48020A8
:1008500028606068A8B1FFF76DFE06460DE02868C5
:1008600040F48030F4E740F480202860F7E700BFD0
:10087000FFF760FE801B642873D828688003F7D5D3
:100880000CE0FFF757FE064605E000BFFFF752FEFB
:10089000801B6428F0D828688003F7D42078DFF81C
:1008A000AC8280074FF0000A3ED5A748001D0168C2
:1008B00011F00C0F08D00068C0F3810002280BD1A2
:1008C000D9F80000400207D42868800716D5E068F0
:1008D000012800D112E033E1E068B8B10120C8F886
:1008E0000000FFF727FE064605E000BFFFF722FEE7
:1008F000801B0228C0D828688007F7D5286821699E
:1009000020F0F80040EAC10028600DE0C8F800A01F
:10091000FFF710FE064604E0FFF70CFE801B0228DE
:100920001FD828688007F7D42078000722D5864F83
:1009300087486169703771B101210160FFF7FAFDE5
:10094000064604E0FFF7F6FD801B022809D8386848
:100950008007F7D50EE0C0F800A0FFF7EBFD0646D4
:1009600005E082E0FFF7E6FD801B02287DD83868AD
:100970008007F7D42078400768D5DFF8CCB100278E
:100980000BF13C0BDBF80000C0000BD4DBF80010CF
:1009900041F08051CBF80010DBF80000012700F097
:1009A000805000906B4E3068C00510D4306840F421
:1009B00080703060FFF7BEFD009005E0FFF7BAFDE4
:1009C0000099401A022850D83068C005F6D55E4E0E
:1009D000A0686C3601280FD00528306810D020F0B0
:1009E00001003060306820F004003060A068B8B1C9
:1009F000FFF7A0FD00900FE0306840F00100F4E741
:100A000040F004003060F7E7FFF794FD0099411AC9
:100A100041F28830814266D830688007F4D50EE014
:100A2000FFF788FD009007E0FFF784FD0099411A69
:100A300041F28830814256D830688007F4D42FB113
:100A4000DBF8001021F08051CBF80010A069C8B38A
:100A50003D49091D0968C1F3810102294AD00228D4
:100A6000504607D0C8F8600000E03CE0FFF762FDA8
:100A700004463BE04746C8F86000FFF75BFD0646CA
:100A800005E000BFFFF756FD801B02282BD8286821
:100A90008001F7D4D4E907010843A16A2E4A490826
:100AA00002EB0141626A41EA8211084394F82C107A
:100AB00040EA0161C9F8001001203866FFF73AFDED
:100AC000044606E03EE000BFFFF734FD001B0228AD
:100AD00009D828688001F7D534E000BFFFF72AFD68
:100AE000001B022802D90320BDE8F88F2868800186
:100AF000F4D427E00128F7D0D9F80000E26900F427
:100B0000800191421CD1226A00F03F01914217D12D
:100B100047F6C071626A0140B1EB821F10D1A26A30
:100B20004FF0FF3300F4403103EB5202B1EB024FC0
:100B300006D194F82C1000F07060B0EB016F01D07A
:100B40000120D1E70020CFE70438024000004742EF
:100B5000800E4742007000400000FFFF10B5401EAD
:100B6000B0F1807F01D3012010BD4FF0E02460611F
:100B70000F21601700F08FF80020A061072020618E
:100B8000002010BDFEE7000070B586B01421684655
:100B9000FFF762FB16480024016841F08001016004
:100BA000016801F080010591016841F001010160D7
:100BB000016801F001010591016841F04001016007
:100BC00000680C4E00F040004FF4005505900022E4
:100BD00029463046FFF7A8FC01200095CDE9010425
:100BE000694630460394FFF787FB06B070BD0000EE
:100BF0003038024000180240FEE7FEE770477047B9
:100C0000FFF79EBC10B592B030216846FFF724FB79
:100C100014210CA8FFF720FB18480024016841F0BC
:100C200080510160006800F0805011901448016804
:100C300021F4404141F4804101600068069400F4D1
:100C40004040119002200090012003901020049059
:100C50006846FFF7CDFD08B172B6FEE70F20CDE97B
:100C60000C040E940F9400210CA81094FFF7F4FCD0
:100C7000002801D072B6FEE712B010BD4038024025
:100C8000007000400248016841F470010160704743
:100C900088ED00E0FEE70907090E002804DB00F1FB
:100CA000E02080F80014704700F00F0000F1E02011
:100CB00080F8141D704702E008C8121F08C1002AFE
:100CC000FAD170477047002001E001C1121F002ACD
:100CD000FBD17047FFF73CFCFFF794FFFFF754FF91
:100CE000094C4FF40055012229462046FFF71CFC11
:100CF000C820FFF7EFFA002229462046FFF714FC30
:100D0000C820FFF7E7FAEEE70018024000000000F5
:100D10000000000001020304060708093C0D00085A
:100D20000000002010000000B60C00084C0D000868
:100D30001000002000040000C60C000801000000A4
:0C0D400010000000000000000024F4007F
:04000005080001AD41
:00000001FF
